:100000000C9480050C949D050C949D050C949D0505
:100010000C949D050C949D050C949D050C949D05D8
:100020000C949D050C949D050C9440190C94871715
:100030000C94A1290C949D050C949D050C949D0590
:100040000C949D050C949D050C949D050C949D05A8
:100050000C949D050C942F140C949D050C949D05F7
:100060000C949D050C949D050C949D050C949D0588
:100070000C949D050C949D050C949D050C949D0578
:100080000C949D050C949D050C949D050C949D0568
:100090000C949D050C949D050C949D050C949D0558
:1000A0000C949D050C949D050C949D050001010187
:1000B0000101010101010202020202020202020325
:1000C00003030303030303040404040404040505F5
:1000D00005050506060606060707070707080808B8
:1000E00008090909090A0A0A0B0B0B0C0C0C0D0D67
:1000F0000D0E0E0E0F0F0F101011111112121313FF
:100100001414151516161717181819191A1A1B1B77
:100110001C1D1D1E1E1F20202122222324242526D3
:1001200026272829292A2B2C2D2D2E2F303132320B
:10013000333435363738393A3B3C3D3E3F40414217
:10014000434445464748494A4C4D4E4F50515354FD
:10015000555658595A5B5D5E5F61626465666869B1
:100160006B6C6D6F7072737577787A7B7D7E808231
:10017000838587888A8C8E8F91939596989A9C9E7A
:10018000A0A2A3A5A7A9ABADAFB1B3B5B7BABCBE8A
:10019000C0C2C4C6C9CBCDCFD1D4D6D8DBDDDFE257
:1001A000E4E7E9EBEEF0F3F5F8FAFDFFFFAA7F557F
:1001B000402223252628292A2C2D2F30323335366C
:1001C000383A3B3D3E4042434547494A4C4E5051E8
:1001D000535557595A5C5E6062646668696B6D6F0F
:1001E00071737577797B7D7F81838587898A8C8E12
:1001F00090929496989A9C9E9FA1A3A5A7A8AAAC1A
:10020000AEAFB1B3B4B6B8B9BBBCBEBFC1C2C3C553
:10021000C6C7C9CACBCCCDCED0D1D2D2D3D4D5D6F5
:10022000D7D7D8D9D9DADADBDBDBDCDCDCDCDCDD28
:10023000DDDDDDDCDCDCDCDCDBDBDBDADAD9D9D80C
:10024000D7D7D6D5D4D3D2D2D1D0CECDCCCBCAC9A4
:10025000C7C6C5C3C2C1BFBEBCBBB9B8B6B4B3B1D3
:10026000AFAEACAAA8A7A5A3A19F9E9C9A9896946E
:1002700092908E8C8A89878583817F7D7B79777543
:1002800073716F6D6B6968666462605E5C5A595722
:10029000555351504E4C4A4947454342403E3D3BE1
:1002A0003A3836353332302F2D2C2A29282625236B
:1002B0002206532B002E002D62010000000553146E
:1002C0000004001D000100010001001A0016001BBF
:1002D0000001002841010008000700060001002974
:1002E0006101001500094419000100010001001717
:1002F000000A0005000000AC00A600E300000003B7
:10030000530000AB00A500160A0000000F0000A873
:100310000001001C000B0011000000AE00010018DD
:10032000000D0010000100A90001000C000E0036B5
:100330000001002C64010012000F00370001002AA8
:100340004201001300330038000100AA0001003907
:1003500000340035720100000001003A0001000184
:10036000000100000001003B001E0001000100012F
:100370000001003C001F0001000100010001003DE0
:1003800000200001000100010001003E00210001E9
:10039000000100010001003F0022000100000001F7
:1003A0000001000100000001000000010001000147
:1003B00000000001000000010001004000230001D6
:1003C00000000001000100410024000100010001C3
:1003D000000100420025000100010001000100436E
:1003E0000026000100010001000100440027000177
:1003F00000010001000100450001000100010000B2
:1004000000010001000100010001000000010001E5
:10041000001E02310201000100010001001F020163
:1004200000010001000100010020020100010001A3
:100430000001002F0021022F020100010001000134
:100440000022020100000001000100010000000183
:100450000000000100010001000000010000000197
:100460000001000100230201000000010001003032
:1004700000240230020100010001000100250201F8
:10048000000100010001000100260201000100013D
:1004900000010001002702310001000100010001FC
:1004A0000001000100010000000100010001000145
:1004B000000100000001000100B600010001000180
:1004C0000001000100FD0001000100010001000128
:1004D00000FE0001000100010001000100FF000119
:1004E0000001000100010001000100010000000105
:1004F00000010001000000010000000100010001F6
:1005000000000001000000010001000100FB0001EB
:1005100000000001000100FA00F200F400010001F7
:10052000000100F000F100F600010001000100F9F7
:1005300000F300F5000100010001000100FC0001D2
:1005400000010001000100010001000100010000A4
:100550000001000100010001000100000001000194
:100560000001000100010001000100010001000183
:100570000001000100010001000100010001000173
:100580000001000100010001000100010001000163
:100590000001000100000001000100010000000155
:1005A0000000000100010001000000010000000146
:1005B0000001000100010001000000010001000134
:1005C0000050000100010001000100520051000133
:1005D0000001000100010001004F000100010001C5
:1005E0000001000100010001000100010001000103
:1005F0000001000100010000000100C25C010001D7
:1006000000010000000100010001000100010001E3
:1006100000010001000100010001000100010001D2
:1006200000010001000100010001000100010001C2
:1006300000010001000100010001000100000001B3
:1006400000C35CC95C0000CA5C000001002B5DC5F2
:100650005C0000C65C000001000100010001000117
:100660000000000100010001000100010001000183
:100670000001000100010001000100010001000172
:100680000001000100010001000100010001000162
:100690000001000100010001000100010001000053
:1006A0000001000100010001000100000001000143
:1006B00000010001000100010001000100195001CA
:1006C0000001000100010001000100010001000122
:1006D00000010001000100175001000100010001AC
:1006E0000001000100000001000100010000000104
:1006F000000000010001002B020000350200000193
:1007000000010001000100010000000100010001E2
:1007100000010001000100010001000100010001D1
:10072000000100010001000100185001000100015A
:1007300000010001000100010001000100010001B1
:10074000000100010001000000105001001B001911
:1007500000010000003A00010006000A00E200016A
:10076000003B002100040020001100E0003C001AC2
:100770000016001F0010002C623D00150007001E2F
:10078000002B0001003E00010009000500000001EF
:100790000001001C000000170000000100010041E2
:1007A0000000003B00000001003F000100010001CB
:1007B00000000001004000010001000100010001F3
:1007C000004100010001000100010035024100016B
:1007D000000100010001002B0242000100010001A4
:1007E0000001000100010001000100010001000002
:1007F000001050010005000100010000000100018F
:10080000001400010001000100010001001A0001B4
:10081000000100E200010022000800070001002C96
:10082000000100230015000900E0000100010001A3
:1008300000210013000000010001002B0000000651
:1008400000000001000100010000000100000001A3
:100850000001000100010001000000010001000191
:100860000001000100010001000100010001000180
:100870000001000100010001000100010001000170
:100880000001000100010001000100010001000160
:1008900000010001000100000010500100010001F2
:1008A0000001000000010001002100010001000121
:1008B0000001001D0004001E000100150001001AC7
:1008C0000016001F000100060001001B00070020A9
:1008D00000010001000100190005001600000001E0
:1008E0000001000100000001000000010001000102
:1008F00000000001000000010001000100010001F2
:1009000000000001000100010001000100010001E0
:1009100000010001000100010001000100010001CF
:1009200000010001000100010001000100010001BF
:1009300000010001000100010001000100010000B0
:100940000032190A00047F3F1F64321464321478A5
:100950003C1E1E140A0505010902A10185020901B8
:10096000A100050919012905150025019505750145
:100970008102950175038101050109300931158155
:10098000257F95027508810609381581257F950117
:1009900075088106050C0A38021581257F950175B9
:1009A000088106C0C005010980A101850319012A3B
:1009B000B700150126B700950175108100C0050C20
:1009C0000901A101850419012AA002150126A0022E
:1009D000950175108100C005010906A10185050575
:1009E0000719E029E7150025019508750181020521
:1009F00007190029EF1500250195F0750181020501
:100A00000819012905950575019102950175039154
:100A100001C005010906A101050719E029E7150034
:100A20002501950875018102950175088101050769
:100A3000190029FF150026FF00950675088100059D
:100A40000819012905950575019102950175039114
:100A500001C009023B00020100A0FA0904000001E4
:100A60000301010009211101000122400007058155
:100A70000308000A09040100010300000009211114
:100A800001000122BC000705820320000A120110A8
:100A900001000000089732754901000102030104BA
:100AA000033000000022034500720067006F00441D
:100AB000006F007800200045005A002000530068B5
:100AC0000069006E006500000030035A00530041C9
:100AD00000200054006500630068006E006F006C29
:100AE000006F006700790020004C00610062007315
:100AF00000200049006E00630000000403090400A8
:100B000011241FBECFEFDAE0DEBFCDBF24E0AAE2A2
:100B1000B2E001C01D92A130B207E1F712E0A0E0FF
:100B2000B1E0EEEBFAE502C005900D92AA32B107F2
:100B3000D9F70E94FD250C94172D0C940000E8EDC8
:100B4000F0E080818E7F80831092E2001092DA00C4
:100B50001092E100A0EEB0E08C9181608C938081D6
:100B60008F77808319BCA7EDB0E08C918E7F8C933A
:100B700080818F7E80831092C70308952091E400C6
:100B80003091E50095E6A9012091EC00822F81705B
:100B900020FF06C08091E80080FF06C080E0089535
:100BA0002091E80022FD1AC08091F303882389F088
:100BB000853089F08091EB0085FD0FC02091E40025
:100BC0003091E50042175307F9F29150E1F684E0C5
:100BD000089582E0089583E0089581E00895EF92FA
:100BE000FF920F931F93CF937C018B010E94BE0550
:100BF000C82F811117C08091E80085FD0BC080913E
:100C0000E8008E778093E8000E94BE05882399F360
:100C1000C82F08C0F70181917F018093F100015036
:100C2000110949F78C2FCF911F910F91FF90EF90F1
:100C300008958091F50387FF13C08091E80082FF3B
:100C400006C08091E8008B778093E80004C0809113
:100C5000F3038111F2CF08958091F3038823D9F330
:100C60008091E80080FFF8CF8091E8008E77ECCF8C
:100C7000982F9093E900242F762F50E0891731F0B8
:100C80007091EC002091ED005091F00021FD07C023
:100C90009F5F973071F78093E90081E0089530916C
:100CA000EB003E7F3093EB003091ED003D7F3093C1
:100CB000ED003091EB0031603093EB007093EC006D
:100CC0002093ED005093F0002091EE0027FDE0CF3F
:100CD00080E00895CF92DF92EF92FF920F931F93DF
:100CE000CF93DF93C8EDD0E088818F7E8883E7EDD6
:100CF000F0E080818160808384E082BF81E0809326
:100D0000C70388818E7F888302EE10E0F80110828D
:100D10001092DA0081EEC82ED12CF6011082888163
:100D20008F77888388818068888388818F7D888396
:100D300019BC1092F3031092F4031092F203109274
:100D4000F10390EEE92EF12CF70180818B7F8083F7
:100D500088818160888342E060E080E00E943806FC
:100D6000F60180818E7F8083F8018081816080839D
:100D7000808188608083F70180818E7F8083888175
:100D800080618883DF91CF911F910F91FF90EF9049
:100D9000DF90CF900895FC018091FB039091FC03BC
:100DA00086179707A0F06115710529F49091E80066
:100DB0009E779093E80090E06115710551F49111D0
:100DC00008C08091E80082FF34C080E00895BC0133
:100DD000F2CF8091F3038823C1F18530C1F1809176
:100DE000E80083FD30C08091E80082FDEACF809169
:100DF000E80080FFE1CF8091F3002091F200382FCE
:100E00006115710519F02830310558F091E028304E
:100E1000310509F090E02091E8002E772093E8005A
:100E2000CBCF81918093F100615071092F5F3F4FCB
:100E3000E7CF8091F303882341F0853041F0809122
:100E4000E80083FFBECF81E0089582E0089583E04B
:100E5000089508958091D00308959091B303803F41
:100E600059F48091B40387FF0DC01092B40391111F
:100E70000BC01092AE0308C0813F81F48091B4038F
:100E800018169CF3992381F08091B5039091B603D5
:100E9000892B09F064C01092AB030895823F49F496
:100EA00097FFF0CF1092B3038091B4038111ECCF80
:100EB000E0CF833F19F41916ACF3E4CF2091B503CA
:100EC000893F29F41216F4F61092B503DBCF8A3F5E
:100ED00019F427FFD7CFF8CF2091B6038B3F29F421
:100EE00027FFD0CF1092B603CDCF8C3F19F4121646
:100EF000CCF3C8CF843F31F48091B2038E7F8093CE
:100F0000B203C0CF853F21F48091B2038D7FF7CF2C
:100F1000863F21F48091B2038B7FF1CF873F21F48C
:100F20008091B203877FEBCF883F21F48091B20399
:100F30008F7EE5CF8D3F31F4809172038E7F809359
:100F40007203A0CF8E3F21F4809172038D7FF7CF83
:100F50008F3F09F097CF809172038B7FF0CF089578
:100F60008091720380FD16C081FD16C082FD16C0FF
:100F70008091AB038823A1F0803580F42CE0829F20
:100F8000C001112460E570E00E94AF2A862F672B14
:100F900039F0089583E0089586E008958CE008957F
:100FA00081E008958091720380FD14C081FD14C01A
:100FB00082FD16C08091AE03882381F0833280F4D5
:100FC0002CE3829FC001112463E270E00E94AF2AEB
:100FD000862F08958FE008958EE1089585E00895A5
:100FE0008CE30895803F31F40E94D207819580936D
:100FF000B4030895813F19F40E94D207F8CF823FCD
:1010000031F40E94D20781958093B3030895833F02
:1010100019F40E94D207F8CF893F29F40E94B00743
:101020008093B50308958A3F21F40E94B00781950B
:10103000F7CF8B3F31F40E94B00781958093B603C0
:1010400008958C3F19F40E94B007F8CF843F31F423
:101050008091B20381608093B2030895853F21F4AB
:101060008091B2038260F7CF863F21F48091B20372
:101070008460F1CF873F21F48091B2038860EBCF89
:10108000883F21F48091B2038061E5CF8D3F31F438
:101090008091720381608093720308958E3F21F4E2
:1010A000809172038260F7CF8F3FB9F7809172030E
:1010B0008460F1CF9C014FB7F89480916E039091BA
:1010C0006F03A0917003B09171034FBF821B930B0C
:1010D0000895209124012223C9F020918B0327FF3A
:1010E00015C0E62FE695E695E695EE31D8F4E80FC3
:1010F000F92FF11D677021E030E001C0220F6A95E1
:10110000EAF720958281282322830895FC013296F4
:1011100008962191621303C0DF0111971C92E81712
:10112000F907B9F70895209124012223C1F02091F5
:101130008B0327FF14C0E62FE695E695E695EE3182
:10114000F8F4E80FF92FF11D677021E030E001C0DD
:10115000220F6A95EAF78281822B82830895FC012F
:1011600032962FEF30E04191641751F02F3F19F480
:10117000411101C0232F3F5F3630A9F72F3F09F4FB
:101180000895820F911D27FD9A95FC0162830895B1
:101190008091690381111092690308958091680319
:1011A00090916703892B90916603892B80932A0283
:1011B000909169039923A1F0892B80932A02809151
:1011C0002401882341F180918B0387FF24C08EE1A5
:1011D000ECE2F2E090E0815000F591110E94C80825
:1011E000E0919203F09193033097E1F08091240114
:1011F000882359F080918B0387FF07C080912A02D2
:1012000080932B0285E080932A020280F381E02DF7
:101210008AE292E0099486E0DBCF21912223D9F281
:101220009F5FD9CF0895E92FEE0FE90FEE0F8E0FD4
:10123000982F977086958695869525E0829FF00178
:101240001124E25DFC4F50E040E080E0219130E06D
:10125000092E02C0369527950A94E2F721703327AC
:10126000042E01C0220F0A94EAF7822B4F5F5F4FD2
:101270004530510559F70895E92FEE0FE90FEE0FAC
:101280008E0F982F977041E001C0440F9A95EAF7AE
:1012900086958695869595E0899FF0011124E25DFB
:1012A000FC4F30E020E070E05191DF011197CB015D
:1012B000022E02C0969587950A94E2F78170819577
:1012C0008527842385278C932F5F3F4F2530310559
:1012D00059F7089520912D039091FC0256E02913AF
:1012E00002C080E0089530E0529FF001539FF00D5E
:1012F0001124E350FD4F7181761306C0708178137D
:1013000003C07281741304C02F5F3F4F2770E7CF73
:1013100081E0089580912D039091FC02981301C003
:1013200008958F5F8770FACF882341F08095909160
:1013300067038923809367030C94CE08089588235C
:1013400039F090916703982B909367030C94CE0823
:101350000895882341F080959091680389238093B4
:1013600068030C94CE080895882339F0909168039F
:10137000982B909368030C94CE0808952091DF0277
:101380003091E0022817390771F09093E0028093C2
:10139000DF02E0919203F0919303309721F00084F3
:1013A000F185E02D099408952091DD023091DE024F
:1013B0002817390771F09093DE028093DD02E091E7
:1013C0009203F0919303309721F00680F781E02D8E
:1013D00009940895E0919203F0919303309721F0DE
:1013E0000190F081E02D099480E00895FA018111C7
:1013F00001C0FB0109948091C803982F9E7F29F4B6
:10140000817082608093C80308958635E8F3817007
:101410008465F8CFAF92BF92DF92EF92FF920F9365
:101420001F93CF93DF93082F162FE901E42FF0E0ED
:10143000E455FF4F611111C0E4915E2F4E2F498397
:10144000E8835A831B82DF91CF911F910F91FF9008
:10145000EF90DF90BF90AF900895E62EF12C44916D
:10146000D42EE42FF0E026E0829FC00111242FEF5C
:1014700030E0B9010E949B2A802F90E0880F991FCD
:1014800055E5569FD001579FB00D11248A1B9B0B29
:10149000982F990F890F5901AE18BF08AE9ED00141
:1014A000AF9EB00DBE9EB00D11245B2F189F800122
:1014B0001124012F11275901A01AB10AAE9E8001F3
:1014C000AF9E100DBE9E100D11245901A81AB1082F
:1014D000AE9CC001AF9C900DBE9C900D1124892F35
:1014E0009927281B390B2E9FC0012F9F900D3E9FDF
:1014F000900D1124E92F62307105A1F050F46115AF
:10150000710509F49CCF6130710581F0EB2F512FEB
:1015100096CF6430710569F080F06630710509F48A
:101520008ECFF4CFE42F4B2F592F89CFE42F412FAB
:1015300086CFEB2F542F492F82CF4B2F5D2DE12FDC
:101540007ECF90918B0392FF06C0282F2871283000
:10155000F9F4877F846093FF06C0282F2871283113
:10156000F1F4877E846120918C0320FF06C0382F20
:1015700038713830D9F4877F816021FF06C0282F69
:1015800028712831D1F4877E816194FD877E08958A
:10159000282F24712430F9F68B7F8860DCCF282F28
:1015A0002471243101F78B7E8861DDCF382F3171B2
:1015B000313019F78E7F8860E0CF282F21712131DB
:1015C00021F78E7E8861E1CFCF93DF93972F70E074
:1015D00026E0929F600D711D1124FB0134E5839F6D
:1015E000E00DF11D1124EE0FFF1FEF54FD4FC591CB
:1015F000D491CE01C238D105B9F1E8F5C133D10596
:1016000009F499C050F5C932D10509F48DC0CA3228
:10161000D10509F497C0C11542E5D40708F0C4C04C
:10162000C11521E5D20708F038C1C83ED10508F040
:101630009DC0C03ED10568F5C83AD10508F089C003
:10164000C53AD10508F005C1C130D10511F1209787
:1016500009F443C02497E8F440C0C533D10509F428
:101660005CC0C933D105B9F620918B03237089F092
:1016700080EE90E00EC0C33ED10591F168F4C03E0B
:10168000D105F9F0C23ED10531F620918B0322FD40
:1016900020C0DF91CF910895C63ED10561F1C73ECC
:1016A000D10581F1C43ED10509F0B5CF20918C035D
:1016B00021FFEFCF80918B0384FD0FC087EE90E078
:1016C000E8CF20918B0320FD19C130918C0330FFAE
:1016D000E0CF83EE90E024FFDCCF90E080E0D9CF34
:1016E00020918B0322FD0DC130918C0330FDC0CFC2
:1016F00024FFCFCFF2CF20918B0323FFCACF24FD4D
:10170000ECCFDCCF20918B0323FDFEC030918C0306
:1017100031FFEECF84EE90E0BCCF20918B0325FF0C
:10172000B8CF89E290E0B5CF20918B0325FFB1CFF0
:1017300085E390E0AECF20918B0326FFAACF8AE20B
:1017400090E0A7CF20918B0326FFA3CF81E390E009
:10175000A0CFCF3BD10508F6C85AD0E0CC0FDD1F93
:10176000C550DE4F88819981946493CFC11530E2D2
:10177000D30760F4C11541E0D40708F08ACFCE0149
:101780009065C03FD10508F084CFA7CFC11580E494
:10179000D80708F4A2CFC11590E5D90708F061C0B9
:1017A000CE019F70906A75CFC11526E5D20718F556
:1017B000C11535E5D30708F086C0C11544E5D40747
:1017C00008F07CC09C2F96959695AE0143705527E6
:1017D000C115D34508F466C021E030E002C0220FF5
:1017E000331F4A95E2F740E2949FC0011124822BF7
:1017F000932B9A684ECFC1159AE5D90778F4C11595
:1018000029E5D20708F069C0C11538E5D30708F407
:1018100064CF9C2F8827806F906A3BCFC1154BE522
:10182000D40708F45ACFC1158CE5D80708F462C074
:10183000CE0190568115904208F04FCF8D2F8F71B9
:101840000E94A10A90E0982F882788279F718C2BEF
:1018500042C0C55AD0E0C850DE4F888190E0906405
:1018600018CF9E01E4E036952795EA95E1F72370BD
:101870008C2F86958695837030E2839FC00111245A
:10188000922BC37021E030E002C0220F331FCA95B3
:10189000E2F7822B932B9C68FCCE9C2F8827816FCC
:1018A000906AF7CE21E030E002C0220F331F4A9544
:1018B000E2F740E2949FC0011124EBCF9C2F8827D0
:1018C000846F906AE6CE8C2F0E94A10A90E0982F38
:1018D000882788279F719062DCCE8C2F8F700E94A2
:1018E000A10A34E0D695C7953A95E1F7CF709C2FC1
:1018F0009069CFCECE0199279066CBCE89E390E058
:10190000C8CE82EE90E0C5CE86EE90E0C2CEBF9209
:10191000CF92DF92EF92FF920F931F93CF93DF93BB
:101920008C01C0908E03D0908F03E0909003F090D4
:10193000910380916A0390916B03A0916C03B09125
:101940006D03C82AD92AEA2AFB2ACFE1D0E0BC2EAF
:10195000D701C6010C2E04C0B695A795979587951B
:101960000A94D2F780FD0EC0219788F7B12C8B2DF9
:10197000DF91CF911F910F91FF90EF90DF90CF906B
:10198000BF900895B8018C2F0E94E40A019761F37B
:10199000EECFCF93DF93EC010E94870CBE01DF9165
:1019A000CF910C94E40A0E94C90C292F2F709295B4
:1019B0009F7092509E3078F4E92FF0E0E75EF24D90
:1019C0000C94C32A803F19F020F4883E20F481E073
:1019D0000895843FE1F380E00895883EC0F3813F9D
:1019E000D1F7F5CF822F869586958695089527980D
:1019F0002F98089526982E98089525982D98089543
:101A000056985E980895279A2F9A0895269A2E9AA6
:101A10000895259A2D9A0895209828982198299814
:101A200022982A9823982B9852985A9853985B9802
:101A30003E98469808958098889A8198899A8498C3
:101A40008C9A85988D9A86988E9A87988F9A089501
:101A5000CF93DF9300D00F92CDB7DEB79091F30311
:101A6000943019F589837B836A8382E08093E9004F
:101A70008FEF9091E800815095FD06C095ED9A9505
:101A8000F1F700008111F5CF8091E80085FF0DC0CE
:101A900050E040E063E070E0CE0101960E94EF0567
:101AA0008091E8008E778093E8000F900F900F9060
:101AB000DF91CF910895BC0184E00C94280DBC0106
:101AC00083E00C94280D9C0182E08093E9009FEF55
:101AD0008091E800915085FD06C085ED8A95F1F76B
:101AE00000009111F5CF8091E80085FF0CC050E017
:101AF00040E066E070E0C9010E94EF058091E800D7
:101B00008E778093E8000895CF93DF93EC01809166
:101B100024018823B1F180918B0387FF32C060E2FA
:101B200082E08093E9008FEF9091E800815095FD6D
:101B300006C095ED9A95F1F700008111F5CF8091DF
:101B4000E80085FF1BC08091240170E050E040E078
:101B5000811104C050E040E068E070E0CE010E94D6
:101B6000EF058091E8008E778093E80080E2FE0127
:101B7000A1EDB3E001900D928A95E1F7DF91CF914D
:101B8000089568E081E0CDCFEF92FF920F931F930D
:101B9000CF93DF930E94000D0E94FD0C0E94FA0C6F
:101BA0000E94F70C88E8E82EF12C8FEF90E0F70107
:101BB000918380830AE810E0F80191838083CCE868
:101BC000D0E0998388830E94090DFFEF20E782E02F
:101BD000F15020408040E1F700C000000E94060D57
:101BE0009FEFE0E7F2E09150E040F040E1F700C005
:101BF00000000E94030D2FEF80E792E0215080400B
:101C00009040E1F700C000000E94FD0CEFEFF0E70C
:101C100022E0E150F0402040E1F700C000000E94C7
:101C2000FA0C8FEF90E7E2E081509040E040E1F75E
:101C300000C000000E94F70C809179038770FFEFCD
:101C40008F9FC00111249595879595958795992724
:101C5000F70191838083F80191838083998388833E
:101C60000E94000D0E94FD0C0E94FA0CDF91CF91A2
:101C70001F910F91FF90EF900C94F70CCF9384E09D
:101C800090E00E946C2CC82F81E290E00E946C2CA6
:101C9000982F8C2FCF910895CF92DF92EF92FF92E1
:101CA0006B017C010E94FB09B701A60188E090E06E
:101CB000FF90EF90DF90CF900C94922C8091CC030A
:101CC000882319F081508093CC036091C8037091F0
:101CD000C9038091CA039091CB030C944C0E809160
:101CE000CC03833018F48F5F8093CC036091C803DA
:101CF0007091C9038091CA039091CB030C944C0E50
:101D0000E8ECF3E083E0808311828FEF82838383AA
:101D1000148260817181828193810C944C0E6FEEEC
:101D20007EEF90E080E00E949E2C60E082E090E0F8
:101D30000E94802C60E083E090E00E94802C109252
:101D40006A0310926B0310926C0310926D0360E0B3
:101D500084E090E00E94802C60E081E290E00E94AC
:101D6000802C60E085E090E00E94802C60E086E0BE
:101D700090E00E94802C6FEF87E090E00E94802C22
:101D800040E050E0BA0188E090E00E94922C60E0D0
:101D90008DE090E00E94802C40E050E0BA0188E1A4
:101DA00090E00E94922C60E087E190E00E94802CFD
:101DB00040E050E0BA018CE190E00E94922C60E09B
:101DC00080E290E00E94802C1092790310927A03B6
:101DD00010927B0310927C0384E0806180937903EE
:101DE0004091790350917A0360917B0370917C0359
:101DF0008FE090E00E94922C40E050E0BA0183E135
:101E000090E00C94922CCF93C82F873070F580917E
:101E1000180190911901892B89F564E670E080E43E
:101E20000E94CE299093190180931801892BD1F437
:101E300064E670E082E10E942A2A9093190180935F
:101E40001801892B79F481E090E001C0880FCA95D0
:101E5000EAF764E670E080950E942A2A90931901BF
:101E600080931801CF910C947D2A8A30B9F040F408
:101E7000883071F0893079F0209A2898CF910895B0
:101E80008C3091F070F08D30B9F73E9A4698F6CFCD
:101E9000219A2998F3CF229A2A98F0CF239A2B9847
:101EA000EDCF529A5A98EACF539A5B98E7CFCF93E7
:101EB000DF938091C80380FD0BC0E4E5F2E011825E
:101EC000108212821382349652E0E039F507B9F796
:101ED000C4E5D2E0FE01928120813181892F29174A
:101EE00008F4822F381708F4832F8383381B31833B
:101EF000281B2083981B9283349682E0E039F807F0
:101F000051F70E94C82964E670E084E80E94CE2957
:101F100064E670E088810E942A2A64E670E0898184
:101F20000E942A2A64E670E08A810E942A2A64E6D6
:101F300070E08B810E942A2A249692E0C039D9074A
:101F400039F70E947D2A579A3BB13F772BB1206821
:101F50004FB7F89484E592E0FC015191CF0168E01D
:101F60002BB9000000C057FF3BB9550F000000C05F
:101F700000C000C03BB900C06A9591F7F2E080391B
:101F80009F0751F74FBF8FE594E00197F1F700C02D
:101F90000000DF91CF9108958F929F92AF92BF92F0
:101FA000CF92DF92EF92FF920F931F93CF93DF9325
:101FB000FC01B280948081E08483C0E9D2E004E532
:101FC00012E08BE4A82E88248394EE24EA94F12C6A
:101FD0002BE4C22ED12C91101DC01B821A829801B5
:101FE0004A81698188810E940A0A25960C5F1F4FE9
:101FF00082E0CB3DD80779F7DF91CF911F910F9108
:10200000FF90EF90DF90CF90BF90AF909F908F9018
:102010000C94570F2B81222309F121502B833C81F3
:102020008A2D821B311101C0822F9091CB03899F91
:10203000C0011124B6010E949B2A6A83211104C0A9
:10204000332311F01C82AB8222E02B1540F28091E9
:10205000C90388838091CA038983C1CF0E94242B3E
:10206000823091400CF0BBCF82E08B15C0F40E940F
:10207000242BB7010E94AF2A888322E02B1590F40D
:102080000E94242B2091CA032695622F70E00E94A3
:10209000AF2A280F29831A82AB828C82A0CF80912D
:1020A000C903EACF2091CA03F5CFEF92FF921F93A5
:1020B000CF93DF93EC0184E5E82E82E0F82E10E068
:1020C0008C8197014091CB036091CA03810F0E94DC
:1020D0000A0A1F5E84E0E80EF11C1F3F89F70E9488
:1020E000570F9A818C8190FF08C08F5F8C83DF919E
:1020F000CF911F91FF90EF9008958150F7CFBF923D
:10210000CF92DF92EF92FF920F931F93CF93DF93C3
:10211000FC018281DD24DA9480FD02C0DD24D394A9
:1021200004E512E0D0E0C0E02FE0B22EF801118209
:1021300010821282138294E0E92EF12CC12C80913E
:1021400051028C0D80310CF43DC06B2D0E948D2A04
:10215000892F082E000C990B8C179D0791F4809104
:10216000CB038E9DA0018F9D500D11245595479551
:102170005595479598016091CA038091C9030E94C3
:102180000A0ACD0CF1E0EF1AF108C9F621960C5FAE
:102190001F4FCF30D10551F60E94570F8091510249
:1021A00091E0D91215C0811111C08EE080935102C7
:1021B000DF91CF911F910F91FF90EF90DF90CF9023
:1021C000BF90089587FFC5CF815FC3CF8150EECF09
:1021D00090E00196BE010E94AF2AE8CF0F931F93B3
:1021E000CF93DF93C4E5D2E0FE0111821082128208
:1021F0001382349682E0E039F807B9F710E000E086
:1022000080915202082E000C990B081719078CF1C7
:1022100080911601082E000C990B801791074CF144
:102220009E014091CB036091CA038091C9030E9433
:102230000A0A0F5F1F4F24960F30110509F70E94FD
:10224000570F8091150190915202980F909352026E
:1022500020911601280F20931601121614F49E30B7
:102260001CF0819580931501DF91CF911F910F9103
:102270000895198218821A821B82DBCF8F929F9257
:10228000AF92BF92CF92DF92EF92FF920F931F9384
:10229000CF93DF93EC014C81042F10E09801D8011B
:1022A0000E94082D9B01AC010E94D32C4B015C01C4
:1022B000E0E2F0E0E01BF10BA5E5B0E0AC019B0132
:1022C0000E94D32C6B017C019F01DF010E94C92A6F
:1022D0009B01AC010E94DE2C9B01AC01280D391D35
:1022E0004A1D5B1DC701B6010E94E62CF22E822F0B
:1022F00090E039E23F15D8F143E0249F900111248A
:1023000035952795122F109594E5C92E92E0D92E78
:1023100000E085E5E82EEF188E2D01FD8F2D96014A
:10232000412F6091CA030E940A0A0F5F54E0C50E54
:10233000D11C0F3089F70E94570F9C8181E09923AF
:1023400019F0903219F48FEF8093170180911701E3
:10235000890F8C83DF91CF911F910F91FF90EF90A8
:10236000DF90CF90BF90AF909F908F90089525E51C
:1023700030E0A901481B590BCA019A01220F331FF3
:10238000280F391F37FFBCCF2F5F3F4FB9CFEF92D8
:10239000FF920F931F93CF93DF938C01C4E5D2E09C
:1023A000F12CE12CF80194816091CA038091C9035A
:1023B000F7E0EF16F104FCF49923F9F09E01409147
:1023C000CB030E940A0A2FEFE21AF20A24968FE04A
:1023D000E816F10439F70E94570FF801848190E064
:1023E0000196817099278483DF91CF911F910F917E
:1023F000FF90EF900895992309F39E0140E0E1CF0B
:102400009091C80390FF0DC0E4E5F2E08183608302
:1024100042831382349692E0E039F907B9F70C94BD
:10242000570F08950F931F93CF93DF9300D000D0E1
:10243000CDB7DEB78C018091530281110AC09E0195
:102440002F5F3F4F4FEF6FEF0E940A0A8A81809300
:102450005302F8016481613069F08091530240E0D9
:10246000662361F040E0623011F44091530280E055
:1024700060E004C06091530240E080E00E940012DE
:10248000F801848190E0019663E070E00E94AF2A39
:1024900084830F900F900F900F90DF91CF911F9139
:1024A0000F910895CF93DF9300D000D0CDB7DEB762
:1024B0009091C80390FF0AC09E012F5F3F4F0E947A
:1024C0000A0A4B8169818A810E9400120F900F9045
:1024D0000F900F90DF91CF910895CF93DF93EC0190
:1024E000EC81F0E0EF54FE4F4491E8ECF3E06281C0
:1024F00081810E9452128C818F5F8C83DF91CF91FA
:102500000895CF93DF93EC01E8ECF3E0438162811F
:102510008C810E9452128C818F5F8C83DF91CF91CE
:1025200008955F926F927F928F929F92AF92BF9227
:10253000CF92DF92EF92FF920F931F93CF93DF938F
:1025400000D000D0CDB7DEB7182F762E042F622E24
:102550009091C80390FF29C0E92FE695AE2FB0E017
:10256000AB5DBE4F8C918093A9039E7F923089F51D
:102570009E012F5F3F4F812F0E940A0A4B81698184
:102580008A810E9400121093C9037092CA030093BB
:10259000CB03662051F06091C8037091C90380910C
:1025A000CA039091CB030E944C0E0F900F900F9096
:1025B0000F90DF91CF911F910F91FF90EF90DF90DF
:1025C000CF90BF90AF909F908F907F906F905F90D3
:1025D0000895823019F40091CB03D5CF863019F4D9
:1025E0001091C903D0CF8930D9F3893161F6E9510F
:1025F0008E2F8170582EE695F0E0E455FE4FA590A1
:10260000B490BB2484E5E82E82E0F82ED12CC12CB6
:102610009FE0892E912CC601B4010E949B2A812F34
:10262000511013C0860F9701402F672D0E940A0A90
:10263000CA0CDB1C84E0E80EF11C80E9E81682E09D
:10264000F80649F70E94570F9ECF861BECCFE8ECA7
:10265000F3E043812CE0421B08F440E021E062817A
:1026600081810C949112E8ECF3E043812CE0420F5D
:1026700008F44FEF21E0628181810C949112E8EC23
:10268000F3E062812FEF621B08F460E021E04381F8
:1026900081810C949112E8ECF3E062812FEF620FDC
:1026A00008F46FEF21E0438181810C949112E8ECF2
:1026B000F3E0818121E0438162818C500C9491127E
:1026C000E8ECF3E0818121E043816281845F0C9436
:1026D0009112E8ECF3E080818E7F808360817181CC
:1026E000828193810E944C0E1092AA032FEF80E703
:1026F00092E0215080409040E1F700C000000C942F
:10270000570F80E290E09093190180931801809117
:102710004A0281110EC00E94C82981E080934A02BA
:102720002FEF83ED90E3215080409040E1F700C00F
:10273000000064E670E080E40E94CE2990931901C5
:1027400080931801892B09F04EC064E670E080E0A8
:102750000E942A2A9093190180931801892B09F06D
:1027600042C064E670E080E00E942A2A909319013A
:1027700080931801892BB9F564E670E08FE30E941D
:102780002A2A9093190180931801892B61F50E94E0
:102790007D2A64E670E080E40E94CE2990931901BE
:1027A00080931801892BF9F464E670E08CE00E94B4
:1027B0002A2A9093190180931801892BA1F464E6C9
:1027C00070E080E00E942A2A9093190180931801FA
:1027D000892B49F464E670E08FE30E942A2A9093E3
:1027E0001901809318010E947D2A80911801089593
:1027F000CF93873050F58091180190911901C0E076
:10280000892B71F464E670E081E40E94CE299093F4
:10281000190180931801892B31F0C0E00E947D2AB4
:102820008C2FCF91089584E690E00E94592A97FF5B
:1028300005C09093190180931801EFCFC82FC09560
:102840001092190110921801E9CFCFB18FB186957E
:1028500086958C73C3708C2BC82FC095E1CF78946C
:102860001F921FB61F9211248F939F93AF93BF9314
:1028700080916E0390916F03A0917003B0917103EA
:102880000196A11DB11D80936E0390936F03A093D9
:102890007003B0937103BF91AF919F918F911F907F
:1028A0001FBE1F9018952FB7F89480916E039091DA
:1028B0006F03A0917003B09171032FBF08950E9420
:1028C00053149C019091B3038091B403982B21F091
:1028D0003093B0032093AF039091B5038091B6037A
:1028E000982B21F03093AD032093AC03E091920339
:1028F000F0919303309749F082E08093B103048014
:10290000F581E02D81EB93E009940895109267031F
:10291000109266030E94CE0886E0E1EBF3E0DF014F
:102920001D928A95E9F71092AE031092AB031092B4
:1029300072030E945F1490E080E00E94D40990E04E
:1029400080E00C94BE0960936A0370936B038093DC
:102950006C0390936D030C9486141092680380911D
:102960002401ECE2F2E0882359F080918B0387FF89
:1029700007C08EE1DF011D928A95E9F70C94861459
:1029800086E0F8CF1F93CF93DF93CDB7DEB7AA973A
:102990000FB6F894DEBF0FBECDBF85EF93E0209158
:1029A000F100FC012193CF01F3E08D3F9F07B9F7C0
:1029B0008091F603833009F46FC0B8F4813009F4D4
:1029C00046C0823009F4B0C08091E80083FF87C21E
:1029D0008091F5039091F6039A3008F080C2E92FB8
:1029E000F0E0E95DF24D0C94C32A8A3009F48BC003
:1029F0008B3009F46EC0893039F78091F50381324C
:102A000019F78091F9039091FA030297E8F6809103
:102A1000E800877F8093E8008091E80082FF37C05C
:102A20009091F3008091F200029729F48091F100D7
:102A30008B7F813021F48091F1008093D0038091CD
:102A4000E8008B778093E8000E941906BDCF809143
:102A5000F503813A09F0B8CF8091E800877F809331
:102A6000E8008091F9039091FA03892B61F460E208
:102A700081ED93E070E00E94CB068091E8008B77B7
:102A80008093E800A1CF60E090E080E0F3CF8091F8
:102A9000F3038111C1CF98CF8091F503813A09F0FA
:102AA00093CF8091F9039091FA03892B09F08CCF91
:102AB0008091E800877F8093E8008091E80080FFA4
:102AC000FCCF809124018093F1008091E8008E7703
:102AD000B9CF8091F503813209F076CF8091F90367
:102AE0009091FA03892B09F06FCF8091E800877FDE
:102AF0008093E8000E9419068091F70380932401D7
:102B00000E94AD1461CF8091F503813209F05CCF52
:102B10008091E800877F8093E8000E9419068091E9
:102B2000F8038093CF0350CF8091F503813A09F0E9
:102B30004BCF8091E800877F8093E8008091E80088
:102B400080FFFCCF8091CF03BECF803899F08238D0
:102B500009F0C5C18091F9038F70873008F0BFC1BB
:102B60008093E9008091EB0085FB882780F9109223
:102B7000E90006C08091F1039091F2039111826007
:102B80009091E800977F9093E8008093F100109275
:102B9000F1008091E8008E779EC1882309F48CC1F2
:102BA000823009F09CC18091F70381118FC180911F
:102BB000F9038F702FEF280F263008F090C1809313
:102BC000E9002091EB0020FF81C1933031F4809126
:102BD000EB0080628093EB0079C19091EB009061F3
:102BE0009093EB0021E030E001C0220F8A95EAF7D4
:102BF0002093EA001092EA008091EB008860EACF0F
:102C000081116DC11091F7031F778091E3008078E7
:102C1000812B8093E3008091E800877F8093E80018
:102C20000E9419068091E80080FFFCCF8091E300AC
:102C300080688093E30082E0111183E08093F303C6
:102C40004EC18058823008F04AC18091F7039091BC
:102C5000F8038C3D23E09207A1F583E08A838AE2A2
:102C600089834FB7F894DE01139620E03EE051E2ED
:102C7000E32FF0E050935700E49120FF03C0E2956A
:102C8000EF703F5FEF708E2F90E0EA30C0F0C79694
:102C90008D939D932F5F243159F74FBF8091E800AA
:102CA000877F8093E8006AE270E0CE0101960E947F
:102CB000CB068091E8008B778093E80010C1C09626
:102CC000E7CF4091F9035091FA03292F332723309E
:102CD000310509F445C078F52130310509F47BC090
:102CE0008BE390E0E2E5FAE02230310509F0F7C02D
:102CF0002091E800277F2093E8002091FB0330918A
:102D0000FC038217930708F49C0140E0211531056C
:102D100009F070C041116EC08091E80082FDC9CFFA
:102D20008091F303882329F2853019F28091E8001D
:102D300083FFF2CFBECF2132310509F440C02232E9
:102D4000310509F0CCC04115510509F44EC04130A0
:102D5000510509F0C4C08CEB90E0E6E5F9E0C8CF7E
:102D6000992781309105D9F0009771F08230910553
:102D7000F1F0039709F0B3C0EFE9FAE0E4918E2F88
:102D800090E0EFE9FAE007C0EBEFFAE0E4918E2F74
:102D900090E0EBEFFAE0009709F4A1C0A9CFE9ECCD
:102DA000FAE0E4918E2F90E0E9ECFAE0F4CFE5EA66
:102DB000FAE0E4918E2F90E0E5EAFAE0ECCF4115DD
:102DC000510571F04130510509F089C089E090E06A
:102DD000EDE7FAE08DCF82E190E0EDE8FAE088CF10
:102DE00089E090E0E4E6FAE083CF80E490E0E2E17D
:102DF000FAE07ECF8091F303882309F45ACF85301F
:102E000009F457CF8091E80083FD53CF8091E8000B
:102E100082FD82CF8091E80080FF78CF9091F3000F
:102E20008091F2002115310519F08830910550F09C
:102E300041E0089709F040E08091E8008E778093A8
:102E4000E80064CF44914093F1003196215031095C
:102E50000196E8CF803809F042C08091E800877F72
:102E60008093E8008091F4038093F10092CE811169
:102E700036C01091F703123090F58091E800877FFB
:102E80008093E8001093F4030E941906112311F0B7
:102E900084E005C08091E30087FDFACF81E0809354
:102EA000F30342E061EC81E00E94380642E261EC0B
:102EB00082E00E94380613C08091F703813079F4D4
:102EC00081E0933009F080E08093F2031092E900F2
:102ED0008091E800877F8093E8000E941906809126
:102EE000E80083FF0AC08091E800877F8093E800B4
:102EF0008091EB0080628093EB00AA960FB6F89465
:102F0000DEBF0FBECDBFDF91CF911F9108951F92FD
:102F10000F920FB60F9211242F933F934F935F930D
:102F20006F937F938F939F93AF93BF93CF93DF93D1
:102F3000EF93FF93D091E900DF708091EC00C82FF0
:102F4000C17080FDC0E81092E9008091F000877F99
:102F50008093F00078940E94C2141092E90080914E
:102F6000F00088608093F000CD2BCF70C093E90013
:102F7000FF91EF91DF91CF91BF91AF919F918F9191
:102F80007F916F915F914F913F912F910F900FBE65
:102F90000F901F9018958823B1F19CEF980F913AEC
:102FA00038F4682F8AE292E00E9469080C94CE08F7
:102FB00090E2980F983088F4877021E030E0A90102
:102FC00002C0440F551F8A95E2F7CA01809590917F
:102FD0006803892380936803E9CF9BE5980F9330BA
:102FE00020F490E080E00C94D40998E5980F973194
:102FF00020F490E080E00C94BE09803F20F00E9415
:103000002D070C945F140895CF93C82F882309F4DB
:103010006EC08CEF8C0F813AB8F580912401882323
:1030200011F180918B0387FF1EC0EC2FE695E6958A
:10303000E695F0E0E65DFD4F828190E04C2F477011
:1030400021E030E002C0220F331F4A95E2F78223CD
:103050009323892B89F06C2F8AE292E00E94690801
:103060000E94CE0809C0ECE2F2E08191C81799F302
:1030700082E0E233F807C9F76C2F8AE292E00E94FF
:103080009308CF910C94CE0880E28C0F883068F4BE
:10309000C77021E030E001C0220FCA95EAF78091A5
:1030A0006803822B80936803ECCFEBE5EC0FE330F1
:1030B00040F4F0E0E850FE4F808190E0CF910C9416
:1030C000D409E8E5EC0FE73150F4F0E0EE0FFF1F14
:1030D000E550FE4F80819181CF910C94BE09C03F95
:1030E00030F08C2F0E94F207CF910C945F14CF9197
:1030F0000895CF93C82F0E940418C93349F42FEFC5
:1031000087EE93E0215080409040E1F700C000003E
:103110008C2FCF910C94CB170F931F93CF93DF93EA
:10312000C42FD22FFC0182818823A1F04093F102A9
:103130000E9453149093DC028093DB02C77081E0FD
:1031400001C0880FCA95EAF7DF91CF911F910F91C7
:103150000C94B4091091F102141335C08091DB0274
:103160009091DC020E945A088639910560F5C0E210
:10317000CD0F1D17B9F080E2810F883040F4177031
:1031800081E001C0880F1A95EAF70E94A909C830AA
:1031900048F481E09D2F977001C0880F9A95EAF757
:1031A0000E94B409802F0E947918C83098F4D77013
:1031B00081E001C0880FDA95EAF7DF91CF911F9186
:1031C0000F910C94A909C77081E001C0880FCA95BE
:1031D000EAF7F3CFDF91CF911F910F91089560919E
:1031E000C803669570E04BE050E08AE091E00E94F1
:1031F0005F2C892B19F481E08093AA030E94531459
:103200009093A4038093A30308959091C80390FF23
:1032100036C09170811129C092609093C8036623D3
:1032200051F06091C8037091C9038091CA039091D5
:10323000CB030E944C0E6091C803669570E04BE092
:1032400050E08AE091E00E945F2C892BA9F0109257
:10325000AA0381E08093A60320E04091CB03609114
:10326000CA038091C9030C9491128B3210F09465BB
:10327000D4CF880F982BD1CF0E94EF18EACF0895B2
:103280001F920F920FB60F9211242F933F934F93DB
:103290005F936F937F938F939F93AF93BF93EF93BE
:1032A000FF938091E10082FF09C08091E20082FFDC
:1032B00005C08091E1008B7F8093E1008091DA006E
:1032C00080FF24C08091D80080FF20C08091DA0068
:1032D0008E7F8093DA008091D90080FFB0C080E1BA
:1032E00089BD82E189BD09B400FEFDCF81E08093F4
:1032F000F3038091C703811109C00E949F050E94BA
:103300006A068091E20084608093E2008091E1008F
:1033100080FF17C08091E20080FF13C08091E2001F
:103320008E7F8093E2008091E20080618093E200D2
:103330008091D80080628093D80019BC85E080938A
:10334000F3038091E10084FF3EC08091E20084FF9E
:103350003AC080E189BD82E189BD89B5982F91701D
:1033600080FFFBCF8091D8008F7D8093D800809123
:10337000E1008F7E8093E1008091E2008F7E809358
:10338000E2008091E20081608093E2008091F4038A
:10339000882309F45AC084E08093F3030E94AD149B
:1033A0000E94EA091092CE038091CD03882349F050
:1033B0008091C80381608093C80360E086950E9475
:1033C00005190E94EF188091E10083FF27C08091CA
:1033D000E20083FF23C08091E100877F8093E100BA
:1033E00082E08093F3031092F4038091E1008E7FDA
:1033F0008093E1008091E2008E7F8093E2008091D3
:10340000E20080618093E20042E060E080E00E94A0
:1034100038068091F00088608093F000FF91EF9172
:10342000BF91AF919F918F917F916F915F914F91DC
:103430003F912F910F900FBE0F901F90189519BCC0
:103440001092F3031092C70361CF8091E30087FDD0
:1034500093E09093F303A2CF61E00C94051980915F
:10346000C8038695815009F48AE261E00C9405193D
:103470008091C80386958F5F8B3208F081E061E010
:103480000C9405199091C80390FF07C09695981762
:1034900020F0961710F40C94381A0C942C1ACF9232
:1034A000DF92EF92FF92CF936B017C01C701AA27B5
:1034B000BB27C0E10097A105B10519F4D701CB01E5
:1034C000C0E0492F5A2F6B2F772741155105610511
:1034D000710519F0C85FDB01CA01AC01BD01E4E070
:1034E0007695679557954795EA95D1F7411551051A
:1034F0006105710519F0CC5FDB01CA01AC01BD01AA
:1035000032E076956795579547953A95D1F74115ED
:1035100051056105710519F0CE5FDB01CA01B69551
:10352000A79597958795892B8A2B8B2B09F0CF5FD1
:103530000E94000D0E94FD0C0E94FA0C0E94F70CE4
:10354000EFEFEC0FE73008F05FC0F0E0EF5CF24D1A
:103550000C94C32A0E94090D8091EF02811147C08B
:1035600088E090E00E94742C6093C8037093C903B4
:103570008093CA039093CB0360FF49C0862F81607C
:103580008093C80386950E942C1A8091C803869563
:103590000E942C1A21E04091CB036091CA038091D4
:1035A000C90323C00E94090D0E94060DD5CF0E94B9
:1035B000090D0E94030DD0CF0E94060D0E94030D3D
:1035C0008091EF02811113C08091C80381608093C4
:1035D000C80360E086950E94051960E081E00E94C2
:1035E000051920E04EEE6FEF80E00E949112C701B6
:1035F000B601CF91FF90EF90DF90CF9008950E9499
:10360000090D0E94060DD5CFC630D1F2A5CF0E947C
:103610006913EDCF0E944F1A60938E0370938F034E
:1036200080939003909391030C9486140F931F93AF
:1036300041E050E060E070E004C0440F551F661F99
:10364000771F8A95D2F7CB01BA0160957095809566
:10365000909500918E0310918F03209190033091EB
:10366000910360237123822393231F910F910C9464
:103670000A1B909165038095892380936503282F09
:10368000277071F4282F082E000C330B92171306A5
:1036900039F08595859585950E94161B10926503D6
:1036A00008950F931F9341E050E060E070E004C084
:1036B000440F551F661F771F8A95D2F780918E039E
:1036C00090918F03A0919003B09191038A019B0187
:1036D000082B192B2A2B3B2BC901B8011F910F91E5
:1036E0000C940A1B4F925F926F927F928F929F92DF
:1036F000AF92BF92CF92DF92EF92FF920F931F9300
:10370000CF93DF9300D000D00F92CDB7DEB77C010E
:10371000FC0183819481892B39F01081D180812F24
:103720008D218F3F09F094C60F900F900F900F904E
:103730000F90DF91CF911F910F91FF90EF90DF904D
:10374000CF90BF90AF909F908F907F906F905F9041
:103750004F9008950E94870C082F682F89819A81C5
:103760000E943C09E12FF0E026E0D29EE00DF11D21
:10377000112434E5039FE00DF11D1124EE0FFF1F0E
:10378000EF54FD4F05911491F70182810932FDE557
:103790001F0709F09AC08823C9F18091790391E04D
:1037A000980F9770887F953008F4892B8093790360
:1037B0008091790387702FEF829FC0011124959526
:1037C0008795959587959927909389008093880090
:1037D00090938B0080938A0090938D0080938C004F
:1037E0004091790350917A0360917B0370917C033F
:1037F0008FE090E00E94922C60918E0370918F0375
:1038000080919003909191030E944F1AF701828159
:10381000882309F491C09801215E3C45253031058B
:1038200008F08AC06FE1600F609375038CE090E050
:103830000E94802CF7019281992309F431C61092DD
:10384000F1020230FCE51F0708F413C606312CE52F
:10385000120738F098012A5F3C452730310508F0FF
:1038600008C60E943E0E90938C0380938B030F300A
:103870003CE5130709F4DAC108F054C108309CE5AF
:10388000190709F4BDC108F029C10430FCE51F0780
:1038900009F4AAC108F00FC102303CE5130709F48E
:1038A0009BC103301C4509F49BC160918B031091AF
:1038B0008C0384E090E00E94802C612F81E290E0F4
:1038C0000E94802C0E94AD1415C00A323DE51307FA
:1038D00049F00B329DE5190709F098CF882351F084
:1038E00081E0DFC1882331F08091EF0291E08927E8
:1038F0008093EF0280916503877009F415CFF7017B
:103900008281882309F410CF82E00F900F900F90EE
:103910000F900F90DF91CF911F910F91FF90EF903B
:10392000DF90CF90BF90AF909F908F907F906F90DF
:103930005F904F900C94391B17FF74C0882309F4D3
:1039400079CF809168038093F00210926803809190
:103950007503813009F441C08823D9F1823009F41C
:1039600049C0843009F44DC08FE39CE90197F1F719
:1039700000C000005801E894B7F87CE0C72ED12CB5
:1039800095010C2C02C0369527950A94E2F72F700A
:1039900087E290E029F0822F90E02A30B8F54D962A
:1039A0000E94791894E0C91AD108ECEFCE16EFEF17
:1039B000DE0631F780917503813071F1882341F182
:1039C000823031F1843061F18091F002809368039C
:1039D00031CF82EE0E940418C7CF83E00E949F0976
:1039E00088E10E94041888E10E94CB1783E00E94BE
:1039F0009409BACF82EE0E94041887E50E947918D4
:103A0000B3CF86EE0E94791888E1F8CF0697C8CF29
:103A100082EE0E94CB17D8CF8CE20E947918D4CFC7
:103A200088E2FBCF033FFCE51F0769F1B0F4083DD6
:103A30003CE5130711F1093D8CE51807B1F1073D8D
:103A40009CE5190709F0F6CE06E221EE41EE67ED9E
:103A50007CE5C7010E948C184DCF053FECE51E07A1
:103A6000F1F0B8F0063F2CE5120709F0E3CE07E2CB
:103A700025EE46EE66EF7CE5ECCF07E225EE45EE5F
:103A800068ED7CE5E6CF06E221EE40EE63EF7CE5F3
:103A9000E0CF07E225EE44EE64EF7CE5DACF06E204
:103AA00021EE42EE65EF7CE5D4CF08E221E045EE61
:103AB00069ED7CE5CECF80918B03806106309CE57B
:103AC000190709F447C080918B03886007301C45B3
:103AD00008F440C080918B0380623CC00B30FCE551
:103AE0001F0709F49BC068F409303CE5130709F48B
:103AF0008BC00A301C4509F0D8CE80918B038C60B6
:103B000029C080918B038B7F0D309CE5190711F143
:103B100080918B038D7F0E301C45E0F080918B03EC
:103B2000877F18C00A3FFCE51F0709F461C060F5F4
:103B300002313CE5130709F481C078F400319CE5BB
:103B4000190709F477C080918B038F7B01311C45E5
:103B500009F0ABCE80938B03A8CE0431FCE51F07A0
:103B600009F47AC008F470C005311C4509F09DCEF7
:103B700080918B0382FB992790F921E0922790FB9B
:103B800082F990FB83F9E6CF0D3F8CE5180709F425
:103B900049C070F40B3FECE51E0771F180918C0376
:103BA0008E7F0C3F1C4509F080CE80938C037DCE28
:103BB0000F3F2CE5120709F44BC060F101151D45BC
:103BC00009F073CE80918C03982F909591708E7F21
:103BD000892B90FB81F9E9CF80918B038160BACF6B
:103BE00080918B038260B6CF80918B038460B2CFCB
:103BF00080918C038160D9CF80918C038260D5CF76
:103C000080918B038064A6CF0E94AD1480918B03BA
:103C10008068A0CF80918C038360C7CF80918B0395
:103C20008E7F98CF80918C038D7FBFCF80918B0347
:103C30008F7E90CF80918B038F7D8CCF0E94AD14AF
:103C400080918B038F7786CF80918B03837F82CF88
:103C500080918C038C7FA9CF0E94AD1490918B032F
:103C6000892F97FB87F9805875CF992309F471C084
:103C7000809168038272F801E25CFC45E431F10551
:103C800008F05EC0E85CF24D0C94C32A8091C80332
:103C900080FF03C00E9469132DCE81608093C8030A
:103CA00086950E942C1A26CE4FE25AE168E37AE10B
:103CB0000E94F6091FCE48E35AE16FE27AE1F8CF9D
:103CC00047E553E160E673E1F3CF40E653E167E592
:103CD00073E1EECF4FE353E16BE473E1E9CF4BE4E3
:103CE00053E16FE373E1E4CF47E253E163E373E150
:103CF000DFCF43E353E167E273E1DACF4EE55EE005
:103D00006FE67EE0D5CF4FE65EE06EE57EE0D0CF99
:103D100065E082E00E94421AEDCD68E086E0FACFCD
:103D20006EE089E0F7CF64E18FE0F4CF67E185E1F1
:103D3000F1CF88E1B6CF62E289E1ECCF83E2B1CF87
:103D40000115ECE51E0709F44EC00E3D1C4509F4B3
:103D500087C0F70100811181992309F484C0C8014B
:103D60000E94870CD82E682FC8010E943C09B80118
:103D70008D2D0E94E40A082FD92EB82EF701C58098
:103D8000C2946FE0C62212811111109267038091D4
:103D900065038770C1F01123B1F08D2D807F8034D1
:103DA00049F090E2900F983070F0803619F4F6EFF9
:103DB000BF1649F082E00E94391B8091650387702D
:103DC000AA24A3948111A12C9D2C92944FE09422BB
:103DD0005BE0452E491408F481C0E92DF0E0E45B76
:103DE000F24D0C94C32A0E94AD142FEF34E38CE003
:103DF000215030408040E1F700C00000F89481E09D
:103E00008093E00080E28093D8001092C900EFE137
:103E1000FEE43197F1F700C000001DBA109268006F
:103E20001CBC10BE1FBA10927A0010926E00109245
:103E30006F0010927100109272001092C9001092DF
:103E4000BC0014B817B81AB81DB810BA1092BC004C
:103E500015B818B81BB81EB811BA0C94003F4ACD5B
:103E60000E948F0E47CDC8010E941309D82E7FCF24
:103E70002D2D2F70C22E8D2D807F19F0C29430EF22
:103E8000C3221123C9F0CC2069F080E2800F883072
:103E900010F0B1100BC080916803C82AC09268036B
:103EA0000E94CE08802F0E94041818C080916703DA
:103EB000C82AC0926703F4CF802F0E94CB17CC2072
:103EC00069F0C094005E083010F0B11057C08091C6
:103ED0006803C822C09268030E94CE08292D28508A
:103EE000330B2430310510F40E94EA09112379F0D4
:103EF0008D2D807F803619F436EFB31641F0809116
:103F0000F302823009F09CC283E08093F302AA207E
:103F1000A9F08091650380FD11C0F701128285959B
:103F2000859585950E94511BC7010E94721B809147
:103F300065038595859585950E94161B85E0F7019B
:103F4000DE01119601900D928A95E1F789819A819F
:103F50000E9413099A81E981F0E026E0929FE00D2A
:103F6000F11D112434E5839FE00DF11D1124EE0FA6
:103F7000FF1FEF54FD4F85919491D6CB809167033D
:103F8000C822C0926703A8CF3D2D3F70832E8D2D90
:103F9000807F803219F0829420EF8222BB2071F062
:103FA00081E0B81661F11123B1F1CC2079F1F7016C
:103FB000858180FF77CF8F70858328C0112391F092
:103FC00090916903882D892BC11003C00E94B40908
:103FD00085CFE1E0CE12FACF891709F47FCF809325
:103FE00069037CCFC11006C00E94C808882D0E94BA
:103FF000A90974CFF1E0CF1609F470CFF5CF1123E2
:1040000039F0442443944C1408F468CF882DDECF53
:10401000C11064CFEBCFCC2049F3F9E3BF1209C044
:104020002FEF37EE83E0215030408040E1F700C0B1
:104030000000802F0E94CB1751CF8D2D869586953D
:10404000837069F0813009F049CF802F9D2D9370E6
:10405000111102C090E080E00E94BE093FCF802F86
:104060009D2D9370111102C090E080E00E94D40950
:1040700035CF802F112329F00E94F2070E945F1490
:104080002DCF0E942D07FACF8D2D837009F067C0C8
:10409000111124CF202F229526952770220F220F51
:1040A000402F4F7050E070E060E0022E04C0440FDB
:1040B000551F661F771F0A94D2F780E090E0DC015D
:1040C00004FF0FC08FE090E0A0E0B0E004C0880FD4
:1040D000991FAA1FBB1F2A95D2F780959095A0958E
:1040E000B0952D2D269526952370223029F1D8F4F0
:1040F00040906A0350906B0360906C0370906D0366
:10410000213069F0842B952BA62BB72BBC01CD0158
:1041100064217521862197210E94A314DFCE4429B2
:104120005529662977292A013B01482A592A6A2AF2
:104130007B2AC301B201F0CF842B952BA62BB72B82
:1041400040906A0350906B0360906C0370906D0315
:10415000BC01CD016425752586259725DDCF869583
:10416000112311F08D2D8170882309F4B7CE202FF3
:10417000229526952770220F220F402F4F7050E076
:1041800070E060E0022E04C0440F551F661F771FC9
:104190000A94D2F780E090E0DC0104FF0FC08FE0CA
:1041A00090E0A0E0B0E004C0880F991FAA1FBB1FD9
:1041B0002A95D2F780959095A095B0952D2D2695AE
:1041C00026952370223029F1D8F440908E03509028
:1041D0008F036090900370909103213069F0842BDD
:1041E000952BA62BB72BBC01CD016421752186210F
:1041F00097210E940A1B72CE4429552966297729E6
:104200002A013B01482A592A6A2A7B2AC301B201A2
:10421000F0CF842B952BA62BB72B40908E0350907C
:104220008F036090900370909103BC01CD016425D1
:10423000752586259725DDCF2D2D2F70C22E1123B4
:1042400029F0822F0E94511B802FC0CE802F0E9408
:10425000A9098C2D0E94161B41CE802F32EFB31678
:1042600009F452C03B1578F090EFB91629F1E1EF4F
:10427000BE1609F441C0112309F46AC0C11012CE60
:104280008D2D8F713EC0F3EFBF1609F442C094EF3D
:10429000492EB410F0CF112309F44FC00D2D0F712A
:1042A000802F0E94511B28E0029FC00111248360CF
:1042B00080936503802F25C01123C1F0C1100ECE5D
:1042C0002D2D2F7161E070E080E090E004C0660F5A
:1042D000771F881F991F2A95D2F740908E03509020
:1042E0008F036090900370909103A1CF5524539455
:1042F0005C1408F4F3CDE4CF8D2D8F71112309F4F4
:10430000A9CF0E94511BEACD8D2D8F711123C9F3C6
:10431000A1CF60E070E0CB01112309F46ACF2D2D0D
:104320002F7161E070E080E090E004C0660F771FBD
:10433000881F991F2A95D2F75CCF81E00E94391B14
:1043400031E03C1508F0CACD82E00E94391BC6CD91
:10435000CC2059F0893309F06CCE8FEF97EEE3E073
:1043600081509040E040E1F762CE8D2D8F7172CF89
:10437000E0E1E00FE73008F03EC0F0E0E85AF24D2F
:104380000C94C32A112309F4A9CD8091F50291E080
:1043900089278093F502A2CD1093F5029FCD81E08D
:1043A0008127F7CF11119ACD81E0F3CF111196CD6E
:1043B0001092F50293CD112321F082E08093F30255
:1043C000F3CF8091F302823021F481E08093F302F5
:1043D00085CD833009F082CD1092F302E9CF11230D
:1043E00039F08091F402882381F21092F40276CDA4
:1043F000CC2059F273CD8091F402CC20A9F088230F
:1044000041F08091F50291E089278093F5021092A6
:10441000F402802F111147CD0E94CB1786E0F701DF
:1044200011928A95E9F75ACD882309F457CD1111D5
:1044300055CD8091F50291E089278093F502D5CF83
:10444000813009F064CD1092F3021092F5025FCD35
:1044500085E0DE01119601900D928A95E1F7F70152
:10446000228189819A81211175C90E941309082F1F
:1044700079C90631FCE51F0709F0F7CB8091680385
:104480008A7A91E009F490E09093F20269E2811156
:1044900065E38AE292E00E9493080E94CE082ACA4D
:1044A00006311C4509F055CC8091F20269E2811178
:1044B00065E38AE292E00E946908EFCF1F93CF93F1
:1044C000DF938091FB02807FA9F48091F80288231A
:1044D00089F080912D03D091FC026091F6027091D9
:1044E000F702A091F902B091FA02C62FC72316E095
:1044F000D81304C0DF91CF911F91089590E01097D9
:1045000011F0CF3F19F401968770F2CF189F9001F8
:10451000199F300D1124F901E350FD4F41814713DC
:10452000F2CF40814613EFCF42814111ECCF43815E
:1045300054814A1B5B0B4639510528F78091FB02D9
:104540008F7080618093FB02F901EE5FFC4F8081E8
:104550008F708061808386EF92E00E94721BDF91F2
:10456000CF911F910C948A098F929F92AF92BF9224
:10457000CF92DF92EF92FF920F931F93CF93DF932F
:10458000CDB7DEB761970FB6F894DEBF0FBECDBFD3
:104590008C0185E0F801DE011D9601900D928A954F
:1045A000E1F7D801EC901196DC9011971296CC901F
:1045B000129786EF882E82E0982E4091F902509152
:1045C000FA024115510509F443C19091F602209178
:1045D000F702892F82238F3F09F43AC11396AD90D9
:1045E000BC901497F090F802F501E41BF50BFF2046
:1045F00009F4FFC08091FB02382F307FE639F105C6
:1046000008F0C8C0311185C0FC2C2D1124C09E11AA
:1046100022C0C11020C08F7080618093FB02C40152
:104620000E94721B8091FB02D80115968C938F2DEE
:1046300061960FB6F894DEBF0FBECDBFDF91CF916C
:104640001F910F91FF90EF90DF90CF90BF90AF90B0
:104650009F908F900895A114B10429F08E2D8D2183
:104660008F3F09F024C180E080FF14C04C2D6D2DD8
:104670008E2D0E946A09882369F086EF92E00E94DD
:10468000721B86E0E6EFF2E0DF011D928A95E9F702
:10469000F12CCDCFAB2829F08E2D8D218F3F09F045
:1046A00003C180E0B82FB170AB2E80FF29C04C2D24
:1046B0006D2D8E2D0E946A09B82E811121C0ED86C4
:1046C000DE868D859E850E94C90C292F22952F702C
:1046D000223050F0243078F49F7051F0F801958129
:1046E000907F31F4FB2CA3CF9F7011F08823D1F37E
:1046F000805E8830B8F3C8010E94721BBA2CF2CFDA
:10470000CC2009F494CF8091FB0281608093FB025E
:10471000BFCF2D1112C09E1110C0C1100EC0159632
:104720008C93C8010E94721B86E0F801A6EFB2E0EC
:1047300001900D928A95E1F77ACFED86DE868D8520
:104740009E850E94D30C882309F1CC20F9F080913A
:10475000FB02803270F02091F6023091F702388728
:104760002F831986BB86AA868C87CE0107960E9466
:10477000721B86E0F801A6EFB2E001900D928A95D7
:10478000E1F70E945E22FF24F39451CFC8010E94FA
:10479000721BF9CF332309F470CF2D110FC09E1176
:1047A0000DC0C1100BC0F8018583C8010E94721BA7
:1047B00086E0D4011D928A95E9F739CFED86DE8631
:1047C0008D859E850E94D30C882301F3CC20F1F2C5
:1047D0008091FB02803268F22091F6023091F7025C
:1047E0003A8329831B82BD82AC828E83CE010196DF
:1047F000BECFE639F105E0F6FC2CCC2039F22D11C4
:1048000016C09E1114C08091FB0280FD8DCF982FA1
:10481000907F09F489CFF8018583903F09F481CF17
:10482000982F907F905F8F70892B85837ACFED864C
:10483000DE868D859E850E94D30C81119ACF809152
:10484000FB0281608093FB02C8010E94721BEFCEC5
:10485000CC2009F49BCFED86DE868D859E850E9457
:10486000D30CF82E882309F491CF86E0F801A6EF47
:10487000B2E001900D928A95E1F78091F602909155
:10488000F7020E94C90C92959F70963051F4863FB2
:1048900041F08091F50291E089278093F502909391
:1048A000F4020E945E22C3CE81E08C25FBCE81E023
:1048B0008C25DACE1F93CF93DF93CDB7DEB7679702
:1048C0000FB6F894DEBF0FBECDBF6D8B7E8B8F8B86
:1048D0008E899F89892BE1F0852F84238F3F09F0F2
:1048E00098C05FEF4FEF14C03091F502332309F405
:1048F0004EC0E42FF0E036E0539FE00DF11D11248F
:10490000EE0FFF1FE05BFE4F40815181822B8C93A5
:104910001A8A198A4B8B5C8B85E0FE017396DE0147
:104920001D9601900D928A95E1F786E0FE013D9675
:10493000DE01179601900D928A95E1F7CE01079658
:104940000E94B422811112C086E0FE013796DE017A
:10495000119601900D928A95E1F78A859B85892BA6
:1049600029F08F81988589238F3FC9F516E08091C2
:104970002D039091FC02891320C067960FB6F8941E
:10498000DEBF0FBECDBFDF91CF911F9108958095FF
:104990008223BDCF96E0929FD001939FB00D11244A
:1049A000A350BD4FFE01319601900D929A95E1F70B
:1049B0008093FC020E948A09D9CF819FC0011124F3
:1049C00083509D4F0E94B4228823B9F280912D0319
:1049D00090E001968770992780932D03C8CF20918E
:1049E000FC0230E0C90101968770992740912D03A0
:1049F0004817190679F60E94AD141092FC02109225
:104A00002D0386E0E6EFF2E0DF011D928A95E9F7DB
:104A1000ADCF81E090E0042E01C0880F0A94EAF740
:104A2000A52FB0E0AF51BD4F2C913D8931115CCF26
:104A3000322F38235BCF8F929F92BF92CF92DF921B
:104A4000EF92FF920F931F93CF93DF938091180102
:104A500090911901892B91F080914B028F5F809387
:104A60004B0281110BC00E94811390E090931901B9
:104A700080931801892B11F40E94C40D2DE7822E1A
:104A800023E0922E740110E000E097E0C92EC00EE2
:104A9000802F0E94030F8C2D0E94030F802F0E94F5
:104AA000F813E70199917E01D12C891729F0FE01B5
:104AB00031978083DD24D3948C2D0E94F813F70165
:104AC0009681891709F47AC0868381E08D29182B95
:104AD0000E940C0D0F5F0730C1F60E9453146091C5
:104AE0004D0270914E0290934E0280934D022091A0
:104AF0004C0230E0261B370B820F931F6BEF70E0E8
:104B00000E949B2AE82E392F082F80934C02F090A8
:104B10005002FF2009F45EC010925002E09173032E
:104B2000F0917403AF01425F5F4F20E08BEFB82E2E
:104B30006BEF70E0A191AB3F99F0CA2ED12C8E2D76
:104B4000932F0A17E8F18C199D09092E000CAA0B66
:104B5000BB0B4E97A105B105C8F1DF011197BC92BF
:104B60004E175F0739F720935002111102C021112F
:104B700033C010924F02A0917303B09174039091CF
:104B80005002E5E9F3E080E03191E40129914E0122
:104B9000321751F03C913B3FD9F40C93AF01415097
:104BA0005109EA01288391E01196D3E0E33AFD0729
:104BB00059F79093500280934F0212C080E086CF45
:104BC000DB01AC19BD098A0F9B1FBFCF2F2DC8CFAA
:104BD00081E0EACF1111CDCF80914F028111C9CF71
:104BE000812FDF91CF911F910F91FF90EF90DF9078
:104BF000CF90BF909F908F900895CDB7DEB760970C
:104C00000FB6F894DEBF0FBECDBF84B7877F84BFD9
:104C10000FB6F894A8958091600088618093600039
:104C2000109260000FBE80E890E00FB6F894809379
:104C30006100909361000FBE85B7806885BF85B71E
:104C4000806885BF0E949F050E946A068091E200ED
:104C500084608093E20078948091F3038823A1F02C
:104C60001091E9001F709091EC00892F817090FDE8
:104C700080E8182B1092E9008091E80083FD0E94E3
:104C8000C2141F701093E90082E084BD93E095BDCB
:104C90009AEF97BD80936E000E94811390E09093ED
:104CA0001901809318010E940C0D0E941B0DEDE765
:104CB000F3E0A5E9B3E011921D9223E0EB38F2078F
:104CC000D1F78EE090E00E94342B80937303909391
:104CD0007403FC010E962BEF21938E179F07E1F7CB
:104CE00090E080E00E947A2C8F3E9E4F11F00E944F
:104CF0008F0E8CE090E00E946C2C90E0B0E0A0E081
:104D00008093750390937603A0937703B093780311
:104D100089EA8093800089E08093810024982C9810
:104D20003F988AB18F7C8AB96E98479A8BB180631D
:104D30008BB9769A8FE090E00E94742C609379038F
:104D400070937A0380937B0390937C0367708FEF5B
:104D5000689FB001112475956795759567957727BC
:104D6000709389006093880070938B0060938A0031
:104D700070938D0060938C000E94C40D90E080E0E1
:104D80000E947A2C8F3E9E4F11F00E948F0E82E07F
:104D900090E00E946C2C8093B8030E943E0E90938A
:104DA0008C0380938B0383E090E00E946C2C682F2F
:104DB00070E090E080E00E94A31460918E037091F7
:104DC0008F0380919003909191030E944F1A8091DC
:104DD0008D03811136C090E080E00E947A2C8F3ED6
:104DE0009E4F21F00E948F0E0E94800E88E090E07E
:104DF0000E94742C6093C8037093C9038093CA0304
:104E00009093CB036E7F71F40E94800E88E090E057
:104E10000E94742C6093C8037093C9038093CA03E3
:104E20009093CB030E94FB091092AA038091C803C0
:104E300080FF04C060E086950E94051981E08093A0
:104E40008D0360918E0370918F03809190039091F8
:104E500091030E944F1A8AE191E09093930380930B
:104E60009203A4E4EA2EA9E0FA2E8091F3038530A0
:104E700009F449C10E941B25E9EBF3E0A5E9B3E081
:104E800010E000E0302F8D912191281709F4A9C17D
:104E900090E0DD24D3942827422F4D2109F49CC1B2
:104EA0009F8338878D2191E009F490E099870E94D3
:104EB00053148160782F9B878A874F815885698535
:104EC0008B850E945A24F801E754FC4F8081D82634
:104ED000D0828091AA03882309F441C08091A9035C
:104EE000E091C803E695E81BE093A503823009F042
:104EF0008FC1F0E0EE5AF64FE4910E2F10E0FDE680
:104F0000CF2EF2E1DF2E8091A603882389F0109244
:104F1000A6030E945314980120953095820F931F89
:104F20009093A4038093A3031092A8031092A70365
:104F30008091A3039091A4030E945A0880179107BF
:104F400070F0E091A303F091A4030E0F1F1F1093C4
:104F5000A4030093A30383EA93E0F601099586E096
:104F6000E1EBF3E0DE01119601900D928A95E1F7F5
:104F7000D090B303C090B4031091B5030091B60371
:104F80001092B3031092B4031092B5031092B603BB
:104F90008D2D8C2909F448C08091AF039091B00306
:104FA0000E945A089C019091AE03992309F4C5C14F
:104FB00029323105C8F19F3F19F09F5F9093AE03EE
:104FC000DD2059F00E94D2079FEF1D140CF491E0F0
:104FD000899F802D11248093B303CC2059F00E9427
:104FE000D2079FEF1C140CF491E0899F802D1124AF
:104FF0008093B4033091B3033323B1F02091B40311
:10500000222391F045EB3403C0011124992309F4C4
:105010006AC19093B30345EB240390011124332319
:1050200009F465C13093B403812F802B09F448C083
:105030008091AC039091AD030E945A089C0190911D
:10504000AB03992309F475C129323105C8F19F3F9B
:1050500019F09F5F9093AB03112359F00E94B007A2
:105060009FEF11160CF491E0899F802D11248093FD
:10507000B503002359F00E94B0079FEF10160CF4FF
:1050800091E0899F802D11248093B6033091B50360
:105090003323B1F02091B603222391F045EB340382
:1050A000C0011124992309F426C19093B50345EB5F
:1050B000240390011124332309F421C13093B60352
:1050C0008091B3039091B403892B9091B503892B00
:1050D0009091B603892B11F00E945F1486E0FE01C7
:1050E0003196A1EBB3E001900D928A95E1F70E9411
:1050F000EA099091B703891709F4B7CE0E94EA092B
:105100008093B703B2CE8091F303843009F441C099
:105110001092940388E190E020E40FB6F894A895EB
:10512000809360000FBE209360001092AA038091CC
:10513000CE03811117C081E08093CE038091C80314
:10514000982F91709093CD038E7F8093C8032FEF9B
:1051500040E782E0215040408040E1F700C000007D
:105160000E94570F83B7817F846083BF83B78160BC
:1051700083BF7894889583B78E7F83BF0FB6F894EA
:10518000A895809160008861809360001092600013
:105190000FBE8091F203882309F467CE0E94811329
:1051A00090E090931901809318010E940C0D0E94C9
:1051B0001B0D03EA13E0E5E9F3E011920E171F0758
:1051C000E1F70E941B25E5E9F3E0819181119BC085
:1051D0000E171F07D1F749CE9F5FDD0C963009F0FF
:1051E0005BCE0F5F1F4F0E30110509F04BCE8FEFD6
:1051F0008C878D871E860E9453148160782F988B30
:105200008F874C855D856E8588890E945A2461CE82
:10521000863059F4F0E0E15BF64FE4910E2F10E098
:10522000E1E8CE2EE2E1DE2E6ECE893061F4E69525
:10523000F0E0E45BF64FE4910E2F10E075E5C72E29
:1052400070E1D72E60CE8F3061F4E695F0E0E75B39
:10525000F64FE4910E2F10E06FE7C62E60E1D62ED8
:1052600052CE853159F4F0E0EA5BF64FE4910E2F0F
:1052700010E05EEEC52E50E1D52E45CE08E210E0DE
:105280002EE3C22E21E1D22E883109F43CCE8332A6
:1052900041F4F7010591149142E1C42E42E1D42E6C
:1052A00032CE04EF11E097ECC92E91E1D92E843271
:1052B00009F429CE853281F48E2F63E00E94812A81
:1052C000E92FF0E0EF5BF64FE4910E2F10E03CEC9D
:1052D000C32E3FE0D32E17CE00ED17E089E2C82E93
:1052E00087E0D82E10CE81E08093B30394CE81E086
:1052F0008093B40399CE81E08093B503D8CE81E04A
:105300008093B603DDCE80E189BD82E189BD09B419
:1053100000FEFDCF8091D8008F7D8093D8008091D2
:10532000E00082608093E0008091E00081FDFCCF8E
:105330009CCD232B09F08DCEC3CE232B09F03DCE7F
:1053400073CE1F921FB61F9211248F939F93AF931A
:10535000BF9380919403811113C080916E0390914B
:105360006F03A0917003B09171034196A11DB11D0F
:1053700080936E0390936F03A0937003B0937103B7
:10538000BF91AF919F918F911F901FBE1F90189555
:105390001092B9008CE08093B8000895EF92FF92CC
:1053A0000F931F93CF93DF93182FEB011092BC0044
:1053B00084EA8093BC000E9453147C018091BC005D
:1053C00087FF27C08091B900887F883029F08091BD
:1053D000B900887F8031D9F51093BB0084E88093B1
:1053E000BC000E9453148C018091BC0087FF24C034
:1053F0002091B900287F90E080E02831B1F081E071
:1054000090E0203411F490E080E09195819591092D
:105410000CC0CF3FDC0791F20E9453148E199F09F4
:105420008C179D0758F28EEF9FEFDF91CF911F9160
:105430000F91FF90EF900895CF3FDC07A9F20E94F3
:105440005314801B910B8C179D0770F2ECCF8FEFDC
:105450009FEFEBCF0F931F93CF93DF93EB018093DD
:10546000BB0084E88093BC000E9453148C0180919F
:10547000BC0087FF11C02091B900287F81E090E037
:10548000283211F490E080E0919581959109DF91A7
:10549000CF911F910F910895CF3FDC0741F30E94F8
:1054A0005314801B910B8C179D0708F38EEF9FEF11
:1054B000EECF0F931F93CF93DF93EC0184E880939B
:1054C000BC000E9453148C018091BC0087FF08C06F
:1054D0008091BB0090E0DF91CF911F910F910895D3
:1054E000CF3FDC0789F30E945314801B910B8C176C
:1054F0009D0750F38EEF9FEFEECF84E98093BC00C1
:105500000895991B79E004C0991F961708F0961B1F
:10551000881F7A95C9F78095089587FB082E06267F
:1055200087FD819567FD61950E94812A0EF4919512
:1055300007FC81950895AA1BBB1B51E107C0AA1F58
:10554000BB1FA617B70710F0A61BB70B881F991F24
:105550005A95A9F780959095BC01CD01089597FBC8
:10556000072E16F4009407D077FD09D00E949B2ADD
:1055700007FC05D03EF4909581959F4F0895709556
:1055800061957F4F0895EE0FFF1F0590F491E02D78
:1055900009940E94082D332312F48A1B9B0B0C9450
:1055A000D32A0E94082DB7FF0895821B930B0895FC
:1055B0008F929F92AF92BF92CF92DF92EF92FF9223
:1055C000CF93DF93EC01688179818A819B8161159A
:1055D00071058105910521F464E279ED8BE597E091
:1055E0002DE133EF41E050E00E94B42C49015A0113
:1055F0009B01AC01A7EAB1E40E94D32C6B017C01B2
:10560000ACEEB4EFA50194010E94E12CDC01CB01CA
:105610008C0D9D1DAE1DBF1DB7FF03C00197A109D5
:10562000B04888839983AA83BB839F77DF91CF910A
:10563000FF90EF90DF90CF90BF90AF909F908F90B2
:1056400008950E94D82A089580E091E00E94D82A07
:105650000895B0E0A0E08093000190930101A09331
:105660000201B093030108950F931F93CF93DF932B
:105670008230910510F482E090E0E091FF03F09118
:10568000000430E020E0B0E0A0E0309799F421156C
:10569000310509F447C0281B390B24303105C0F50A
:1056A0008A819B816115710571F1FB01938382836E
:1056B000FE0111C0408151810281138148175907B1
:1056C000F8F04817590799F4109761F012960C9367
:1056D000129713961C933296CF01DF91CF911F91B1
:1056E0000F9108950093FF0310930004F4CF211548
:1056F000310519F04217530718F49A01BD01EF0163
:10570000DF01F801C2CF909300048093FF03D0CF54
:10571000FE01E20FF31F81939193225031093983E7
:105720002883DACF2091FD033091FE03232B41F42F
:1057300020910601309107013093FE032093FD0371
:1057400020910401309105012115310541F42DB757
:105750003EB74091080150910901241B350B40913F
:10576000FD035091FE034217530708F0B5CF241BE9
:10577000350B2817390708F4AFCFBC016E5F7F4F98
:105780002617370708F4A8CF640F751F7093FE0320
:105790006093FD03FA01819391939ECFCF93DF93A2
:1057A0000097E9F0FC01329713821282C091FF0347
:1057B000D0910004DE0130E020E02097A1F42081A8
:1057C0003181820F931F2091FD033091FE03281732
:1057D000390709F067C0F093FE03E093FD03DF9102
:1057E000CF910895DA01AE17BF0708F040C01296B6
:1057F0004D915C9113979D014115510599F7D90180
:105800001396FC93EE9312974D915D91A40FB51FE3
:10581000EA17FB0779F4808191810296840F951F26
:10582000D90111969C938E938281938113969C93B8
:105830008E931297B0E0A0E08A819B810097B9F522
:10584000FE0181919191E80FF91F8091FD039091E4
:10585000FE038E179F0719F6109761F5109200044A
:105860001092FF03D093FE03C093FD03B8CFB38320
:10587000A28340815181840F951FA817B90771F445
:105880004E5F5F4F8D919C911197480F591F518327
:10589000408312968D919C919383828321153105CB
:1058A00009F0ADCFF0930004E093FF0398CFDE0141
:1058B000EC01C2CF13961C921E921297D3CFFC011B
:1058C0004150504030F001900616D1F73197CF018A
:1058D0000895882799270895F999FECF92BD81BD33
:1058E000F89A992780B50895A6E1B0E044E050E029
:1058F0000C94A62CA8E1B0E042E050E00C94A62C59
:10590000262FF999FECF92BD81BDF89A019700B478
:10591000021639F01FBA20BD0FB6F894FA9AF99A18
:105920000FBE08950396272F0E94812C0E94802C81
:10593000252F0E94812C242F0C94812C0196272F37
:105940000E94812C0C94802CDC01CB01FC01F99984
:10595000FECF06C0F2BDE1BDF89A319600B40D92BB
:1059600041505040B8F70895052E97FB1EF400945F
:105970000E94CB2C57FD07D00E94E62C07FC03D0D9
:105980004EF40C94CB2C50954095309521953F4F7B
:105990004F4F5F4F089590958095709561957F4F1B
:1059A0008F4F9F4F08950E94082DA59F900DB49F83
:1059B000900DA49F800D911D11240895B7FF0C94A4
:1059C000D32C0E94D32C821B930B0895A1E21A2E94
:1059D000AA1BBB1BFD010DC0AA1FBB1FEE1FFF1F93
:1059E000A217B307E407F50720F0A21BB30BE40BE3
:1059F000F50B661F771F881F991F1A9469F760952A
:105A00007095809590959B01AC01BD01CF010895E3
:105A1000A29FB001B39FC001A39F700D811D1124EF
:105A2000911DB29F700D811D1124911D0895F89450
:105A3000FFCFE20CE20CEB0CEB0CED0CEB0CEB0CE7
:105A4000EB0CE20CE20CF20CEB0CEB0CF20CA515DF
:105A5000CD156F17CD156F17001621166F172A1762
:105A60003717AA1AD41AD91AD21AD71ADC1AFF1A57
:105A7000461E541E5B1E601E651E6A1E6F1E741E2F
:105A8000791E7E1E831E701C881E8D1E901E931E06
:105A9000961E991E9B1E9E1E381F381FC41FC41FB2
:105AA0001D203920B8216E1F44201C212D212D21BD
:0E5AB000C221EF21CC21CF21D621D221DB2132
:105ABE000100000000000104200001191A1B1C1D2A
:105ACE001E1F20212201020120002A07840D630DD2
